:020000040800F2
:10000000B05B002055020008F5620008C54D0008ED
:10001000F961000831080008197E0008000000009E
:100020000000000000000000000000000173000854
:100030000D0E000800000000A16400082D730008E8
:100040006F0200086F0200086F0200086F020008CC
:100050006F0200086F020008110E00086F0200080E
:100060006F020008190E0008210E00086F02000838
:10007000050900086F0200086F0200086F020008FF
:100080006F0200086F0200086F0200086F0200088C
:10009000350800086F0200086F020008290E0008EA
:1000A0006F0200086F0200086F0200086F0200086C
:1000B0001D7400086F0200086F0200086F0200083C
:1000C0006F0200086F0200086F0200086F0200084C
:1000D0006F020008297B00086F020008FD7B000802
:1000E0006F0200086F0200086F0200086F0200082C
:1000F0006F02000835740008297400086F020008B8
:100100006F0200086F0200086F0200086F0200080B
:100110006F0200086F0200086F0200086F020008FB
:100120006F020008110900081D090008D10D000820
:100130006F0200086F0200086F0200086F020008DB
:10014000410800086F0200086F0200086F020008F3
:10015000DD0D0008F50D0008010E00080D7E0008F9
:100160006F0200086F0200086F0200086F020008AB
:100170006F0200086F0200086F0200080000000014
:100180006F0200086F02000800F002F800F052F859
:1001900014A696E8000CB244B344DA4501D100F04D
:1001A00049F8BAE80F000FA696E83000A5EB040561
:1001B00004EB0607AAEB0704A7F101074FEA1515A0
:1001C0004FEA3414A4F10104AC4201D300F032F838
:1001D00013F0010F18BFFB1A43F0010300F001F800
:1001E000DBE71847AC1C0100CC1C0100103A24BF0F
:1001F00078C878C1FAD8520724BF30C830C144BF8C
:1002000004680C6070470000704700000023002461
:1002100000250026103A28BF78C1FBD8520728BF16
:1002200030C148BF0B6070471FB511F046F91FBDC4
:1002300010B510BD00F002F91146FFF7F5FF09F007
:10024000A3FE00F020F903B4FFF7F2FF03BC00F0B7
:1002500023F900000948804709480047FEE7FEE708
:10026000FEE7FEE7FEE7FEE7FEE7FEE7FEE7FEE766
:1002700004480549054A064B704700000974000808
:1002800089010008B0550020B05B0020B057002065
:10029000B057002053EA020C00F069802DE9F04BC2
:1002A0004FF00006002B1FBFB3FA83F503FA05F4E5
:1002B00024FA05F65E4012BF1643B2FA82F502FA3E
:1002C00005F4C5F120051EBF22FA05FC44EA0C0422
:1002D000203556EA044C4FEA144418BF641C4FF012
:1002E00000084FF00009904271EB030C39D300294C
:1002F00019BFB1FA81F701FA07F6B0FA80F700FAF0
:1003000007F6C7F120071EBF20FA07FC46EA0C06D5
:100310002037B6FBF4FCA7EB0507103F07F01F0BD7
:10032000CBF120062CFA06F60CFA0BFB44BFB346C1
:100330000026202FA4BF5E464FF0000B5BEA060CA0
:1003400008BF4FF0010B19EB0B0948EB0608ABFB9C
:10035000027C06FB02CC0BFB03CCC01B71EB0C0137
:10036000C1E70B46024641464846BDE8F08B13B54F
:10037000084318BF4FF0FF300146AFF30080BDE8DF
:100380001C40704710B5431C02E010F8011B71B10E
:100390008107FAD14FF0013202C88C1A8C4314EA5B
:1003A000C211F9D0C01A0A0603D0C01E10BDC01A6F
:1003B00010BD0A0401D0801E10BD0902FCD0401EF1
:1003C00010BD4FF0000200B5134694469646203902
:1003D00022BFA0E80C50A0E80C50B1F12001BFF4FE
:1003E000F7AF090728BFA0E80C5048BF0CC05DF864
:1003F00004EB890028BF40F8042B08BF704748BFB2
:1004000020F8022B11F0804F18BF00F8012B704725
:1004100070477047704710B500F008F8006810BDCD
:1004200010B5044600F002F8046010BD00487047A3
:100430002801002000487047280100207546FFF77A
:10044000F9FFAE4605006946534620F00700854691
:1004500018B020B5FFF70CFFBDE820404FF00006B4
:100460004FF000074FF000084FF0000BAC46ACE82F
:10047000C009ACE8C009ACE8C009ACE8C00921F08B
:1004800007018D46704710B50446AFF30080204643
:10049000BDE81040FFF7D7BE01491820ABBEFEE70C
:1004A00026000200704700000FF04ABC0FF0DEBCCF
:1004B00007F0B4BC00281CBF002101607047000099
:1004C00000281EBF0021C4F2B01101607047000077
:1004D000B1EEC00AB7EE001A81EE000A70470000C4
:1004E00007F0E6BC0020C4F202001021012201F056
:1004F000C9BC00000020C4F202001021002201F05B
:10050000C1BC00007047000040F20040C4F202008D
:100510000121012201F0B6BC40F20040C4F2020009
:100520000121002201F0AEBCB0F9003040F2180CFD
:10053000C2F2000C00EE103A9CED001AB8EEC00AB0
:1005400021EE000A81ED000AB0F902309CED001A9C
:1005500000EE103AB8EEC00A21EE000A81ED010A61
:10056000B0F9043000EE103AB8EEC00A21EE000AED
:1005700081ED020AC3798179007A1B0243EA0040C7
:10058000084400EE100A9FED041AB8EE400A20EE6F
:10059000010A82ED000A704700401C4270470000CB
:1005A0000BF038BE09F014BAB0F9002000EE102AA2
:1005B00040F21802C2F2000292ED011AB8EEC00A2F
:1005C00021EE000A81ED000AB0F9023092ED011A25
:1005D00000EE103AB8EEC00A21EE000A81ED010AE1
:1005E000B0F9040000EE100AB8EEC00A21EE000ACD
:1005F00081ED020A7047000010B5FFF783FFFFF797
:10060000CDFF07F0EBFD08B1802402E007F096FC77
:10061000044608F027F900281CBF44F0400010BD34
:1006200008F014F8204310BD2DE9F04F83B002927A
:100630000E460190FFF75EFF922000F0C3F8922073
:1006400000F0C0F8552000F0BDF88046552000F0BD
:10065000B9F80546552000F0B5F88246552000F05F
:10066000B1F80446552000F0ADF88346552000F05F
:10067000A9F80746FFF736FF48EA052040F21809B7
:1006800000B2C2F2000900EE100A99ED001AB8EEAD
:10069000C00A4AEA042021EE000A00B286ED000AF0
:1006A00000EE100A4BEA072000B299ED001A02EEA4
:1006B000100AB8EEC00AB8EEC22A21EE000A21EEF6
:1006C000021A86ED010A86ED021AFFF725FF802047
:1006D00000F078F8552000F075F80646552000F037
:1006E00071F8552000F06EF88246552000F06AF847
:1006F0000546552000F066F88346552000F062F864
:100700000446552000F05EF80746552000F05AF8E0
:100710008046FFF7F9FE0F2E25D14AEA052000B2E8
:1007200000EE100A99ED011AB8EEC00A01994BEAE1
:10073000042021EE000A00B281ED000A00EE100A4A
:1007400047EA082000B299ED011A02EE100AB8EE4D
:10075000C00AB8EEC22A21EE000A21EE021A81ED8B
:10076000010A81ED021AFFF7C5FEA22000F02AF867
:10077000A22000F027F8552000F024F8044646B2E5
:10078000552000F01FF80546FFF7ACFEE00040EAF8
:1007900055104FF60001CFF6FF71002E48BF0843F9
:1007A00000EE100AB8EEC00AB4EE001A20EE010AFC
:1007B000B3EE071A029830EE010A80ED000A03B08A
:1007C000BDE8F08F80B582B08DF8070040F69470D8
:1007D0004FF47A7CC2F200000DF107010DF1060220
:1007E0000123CDF800C002F029FB9DF8060002B0FD
:1007F00080BD000090F900204078D3B2DB0043EACE
:1008000050104FF60003CFF6FF73002A48BF18437D
:1008100000EE100AB8EEC00AB4EE001A20EE010A8B
:10082000B3EE071A30EE010A81ED000A70470000AE
:10083000FEE7000040F6D830C2F2000000F0CABC6B
:1008400040F60040C2F2000000F0C4BC10B58AB00F
:100850000024CDE903140821DDE90CECCDE90744BF
:100860000791110A8DF80410190A8DF806104FEA45
:100870001E218DF808104FEA1C218DF805208DF8F7
:1008800007308DF80A1003A901AA09ABCDE9054488
:100890008DF809E08DF80BC000F040FB0AB010BDE8
:1008A000B0B582B040F2C82CC2F2000C4FEA102E54
:1008B0000CF808EF8CF80100080A8CF80200100A06
:1008C00040F2FF14E6468CF80400180A4EF8204F58
:1008D0008CF8060040F6D830002408258CF8031068
:1008E0008CF805208CF80730C2F2000001AB71468D
:1008F0006246CCE90A44CCF8305000F00FFB02B05D
:10090000B0BD000040F6A850C2F2000000F076BF73
:1009100040F60860C2F2000000F070BF80B500F041
:1009200009F840F62840C2F20000BDE8804000F01F
:1009300065BF0000B0B540F69470C2F20000C16C13
:1009400046F2A040C4F202000968A0F1480246F253
:100950009F059142C4F2020522D950F89C2CA9426D
:100960004FF0200364DD46F23F45C4F20205A94280
:1009700078DC46F2A005C4F20205A94200F08A80A4
:1009800046F21045C4F20205A94200F0CC8046F2BE
:100990002843C4F20203994200F0C38080E100BF03
:1009A00046F25802C4F2020202F1600399421FD9D2
:1009B000D2F8A823A9424FF0200340F38F8046F2DB
:1009C0003F45C4F20205A94200F3D08046F2A005DB
:1009D000C4F20205A94200F0F18046F21045C4F2CB
:1009E0000205A94200F0048146F22843FAE000BF64
:1009F000914255D952F854CCA9424FF0200455DC0D
:100A000046F23F05C4F20205A94240F3F58046F2E2
:100A10004005C4F20205A94200F0D68046F27005F6
:100A2000C4F20205A94200F0F58046F28805EBE029
:100A300046F23F05C4F20205A94265DD46F24005D3
:100A4000C4F20205A94225D046F27005C4F202059F
:100A5000A94268D046F28803C4F20203994214D036
:100A60001EE100BF46F24045C4F20205A94211D082
:100A700046F27045C4F20205A94254D046F28843BA
:100A8000C4F20203994240F00B814FF40063134219
:100A90004CD13CE14FF40013134247D137E100BF82
:100AA00052F858CCA9424FF02004A9DD46F23F4548
:100AB000C4F20205A94271DC46F2A005C4F20205A7
:100AC000A94200F0818046F21045C4F20205A94215
:100AD00000F0A08046F2284596E000BF46F23F05B0
:100AE000C4F20205A94275DD46F24005C4F20205D2
:100AF000A94263D046F27005C4F20205A94277D03C
:100B000046F2880340E000BF46F21005C4F2020539
:100B1000A94208D046F22803C4F20203994240F0E9
:100B2000BF804FF40063134200F0F18046F2704240
:100B3000C4F2020291420BD046F28842C4F2020291
:100B4000914209D14FF4006240F8942CF1E000BFCB
:100B5000202240F8942CECE04FF00062814208BF64
:100B60004FF4001240F8942CE3E000BF46F24045F9
:100B7000C4F20205A94221D046F27045C4F2020532
:100B8000A94235D046F28843C4F20203994240F0AC
:100B9000A9804FF40063134242D1B8E046F24045C9
:100BA000C4F20205A9420FD046F27045C4F2020514
:100BB000A9422FD046F2884526E000BF4FF400132B
:100BC00013422DD1A3E000BF4FF4001404EA0C053A
:100BD00025BB9CE046F21005C4F20205A94207D0ED
:100BE00046F22803C4F2020399427BD14FF400631A
:100BF000134215D18BE000BF46F21005C4F2020586
:100C0000A94207D046F22805C4F20205A94273D1D1
:100C10004FF4006404EA0C05002D78D0994219D9EC
:100C200046F21042C4F20202914235D046F2284206
:100C3000C4F20202914229D046F24042C4F20202BA
:100C400091420CBF4FF400114FF0006140F8981C26
:100C50006FE000BF91422DD946F27000C4F202004D
:100C600081425FD046F28800C4F2020081424FD038
:100C700046F2A000C4F2020081420CBF4FF4001003
:100C80004FF0006042F84C0C53E000BF4FF400619D
:100C900040F8981C4DE000BF202140F8981C48E027
:100CA0004FF00063814208BF4FF4001313427FF4FA
:100CB0003DAF2CE046F21000C4F20200814235D074
:100CC00046F22800C4F20200814227D046F24000DA
:100CD000C4F2020081420CBF4FF400104FF00060DC
:100CE00025E000BF4FF00063814208BF4FF40013BE
:100CF000134295D10BE000BF4FF00064814208BF62
:100D00004FF4001404EA0C05002D7FF487AFB0BD4A
:100D10004FF4006042F84C0C0BE000BF4FF4006051
:100D200005E000BF202042F84C0C02E0202042F8F1
:100D3000500C40F20C55C2F20005287800248007C0
:100D4000C4F2020422D46878800730D4A8788007DF
:100D50000CD5A878102100F0FD00A870A878012219
:100D600040F00400A870204601F08CF808F0B0FFB5
:100D70002878400758BFB0BD43F61040C4F20100C8
:100D8000016841F001010160B0BD00BF2878012178
:100D900000F0FD0028702878012240F0040028703F
:100DA00004F5806001F06EF868788007CED5687829
:100DB000102100F0FD0068706878012240F0040006
:100DC0006870204601F05EF8A8788007C1D4CDE7AE
:100DD00040F68840C2F2000000F010BD80B540F639
:100DE000E840C2F2000000F009FDBDE8804006F0D6
:100DF000A1BE000040F66860C2F2000000F0FEBC38
:100E000040F64850C2F2000000F0F8BC7047000005
:100E1000012000F05BBF0000082000F057BF000079
:100E2000102000F053BF0000202000F04FBF000052
:100E300072B600BFFEE7000082B040F2A43640F276
:100E40001C1740F6D83441F2C468C2F20006C2F260
:100E500000070025C2F20004C2F2000805E000BF4E
:100E60000020B07001200DF039FAB078032813D0BB
:100E7000012809D00028F5D1B87846282AD045287D
:100E80002AD1032027E000BFB8784628E8D04528BB
:100E9000E8D10320E5E700BFB878462804D045280C
:100EA00004D1032001E000BF0020B07020464FF4C1
:100EB00000710022002300950195FFF7C7FC204632
:100EC00040F2FF110022002300950195FFF7BEFCC0
:100ED000C8E700BF0020B07040460CF0CBFC717931
:100EE000F07900220CF0A4FABCE7000090F8202072
:100EF000013A012A08D8006800F1140200201368A2
:100F000019431160704700BF00F1240201204FF423
:100F100080211368194311607047000010B590F8E4
:100F200020E0D0F800C0AEF1010EBEF1010FDCF8F8
:100F300008E011D81EF0E05F18D0CEF30164012064
:100F4000A04018608B68DBB1D1F804E0C86840EAC3
:100F5000CE0040EA030E17E000F1240301204FF415
:100F600080211A681143196010BD00BF00F12403ED
:100F700001204FF400111A681143196010BD00BF21
:100F80000868CB6843EA405E0CF5C07000EB0413C0
:100F9000240140F804E00C69184640F8044F097D2C
:100FA000012903D1016841F4807101605068012179
:100FB000D8601068986000201A681143196010BD4D
:100FC00090F82020013A012A30D8B0B546F20060EE
:100FD000C4F20000026842F001020260026822F4DA
:100FE0007C520260D1F814E0CC694A6A0368012C93
:100FF00043EA022202600EF01F024FF0010303FADF
:1010000002F2C3696FEA020C23EA0203C36113D040
:101010002CBBC36803EA0C03C360CB688C8844EA2A
:10102000034300EBCE0423640B4611E0416A41F414
:101030008021416201207047C3681343C3600B687D
:101040008C8844EA034300EBCE04236401F10C03D3
:101050008C681B8843EA044300EBCE046364436856
:101060008D6943EA0204D1F810E0096A002D08BF37
:1010700003EA0C0444604369BEF1000F43EA020432
:1010800008BF03EA0C040129446102D1C16911437C
:10109000C161016821F0010101600020B0BD0000C4
:1010A00070470000B0B590F82040013C012C7DD87D
:1010B000D0F800C000290CBFDCF80C40DCF8104070
:1010C000A4077DD00CF5D8754FEA011C55F80C40EB
:1010D00014F00404946055F80CE005EB011C19BFF2
:1010E0004FEADE0555604FEA5E551560DCF80050AA
:1010F000E64605F00205D5605EF8044F24075ABFA6
:10110000DEF8004004F00F0408241461DEF800400B
:101110000029C4F307249461DEF800504FEA154516
:101120005561DCF808201A70026802EB0112D2F84F
:10113000B8214FEA12225A70026802EB0112D2F86B
:10114000B8214FEA12429A70026802EB0112D2F8FB
:10115000B8214FEA1262DA70026802EB0112D2F88B
:10116000BC211A71026802EB0112D2F8BC214FEACD
:1011700012225A71026802EB0112D2F8BC214FEA26
:1011800012429A71026802EB0112D2F8BC214FEAB6
:101190001262DA7100680CBF00F10C0100F110015D
:1011A000002020220B681A430A60B0BD00F1240120
:1011B00001204FF480220B681A430A60B0BD00BFC3
:1011C00000F1240101204FF400120B681A430A6059
:1011D000B0BD00002DE9F04F81B0044600684669BB
:1011E000D0F804908768D0F80CB0D0F810A0D0F8F0
:1011F0001880F10704D1002530071DD424E000BF7A
:10120000F90710D00121BA07816009D4780700F1ED
:10121000AF80380700F1B680204600F087FA02E080
:10122000204600F085FA0025F80500F18780F803D4
:1012300000F1B180300707D51BF0100004D0206802
:1012400045F400751021C160700708D51BF0080037
:1012500005D020680821C160204600F0F5F9B007EC
:1012600006D52068C068800702D0204600F0EEF95D
:10127000700607D51AF0100004D0206845F4806588
:1012800010210161B00608D51AF0080005D02068C9
:1012900008210161204600F015FAF00606D5206805
:1012A0000069800702D0204600F00EFAB00308D58E
:1012B00019F0100005D0206810214160204600F090
:1012C00005FAF00308D519F0080005D020680821B8
:1012D0004160204600F036FA300440F19B805FEA1E
:1012E000497040F1948006F4807008EA1020284389
:1012F0005FEA8871014648BF41F00201B20558BF5C
:1013000001465FEA48700D4648BF45F00405700588
:1013100058BF0D46300540F17A8018F0700000F09B
:1013200076801038000905286CD8DFE800F00365E6
:101330005D61596945F0080564E000BF20684FF41D
:101340008071BA0581600BD4780515D438051DD499
:10135000204600F0EFF9F8037FF56CAF1BE000BF0B
:10136000204600F0E9F9F8037FF564AF13E000BF11
:101370004FF4006558E700BF05F50055F8037FF509
:1013800059AF08E04FF480554EE700BF05F58045A2
:10139000F8037FF54FAF20684FF48031BA038160C6
:1013A0000AD4780310D4380314D4204600F0C6F9C8
:1013B00030073FF541AF47E7204600F0C1F930075D
:1013C0003FF53AAF40E700BF05F5004530073FF570
:1013D00033AF39E705F5803530073FF52DAF33E7FB
:1013E00045F080050EE000BF45F020050AE000BF93
:1013F00045F0400506E000BF45F0100502E000BFE3
:1014000045F480752068816921F070018161206850
:101410000421416055B1606A40EA050120466162DD
:1014200001B0BDE8F04FFFF73BBE00BF01B0BDE823
:10143000F08F0000002804BF01207047B0B50446BB
:1014400090F8200010B9204600F06EF8206801687E
:1014500041F00101016000F01BFD05462068416874
:10146000C90705D100F014FD401B0B28F6D310E08E
:10147000016821F00201016000F00AFD054600BF8D
:101480002068416889070DD500F002FD401B0B283C
:10149000F6D3606A052140F400306062012084F8D0
:1014A0002010B0BD217E0268012922F0800208BF11
:1014B00080320260617E0268012922F0400208BF8A
:1014C00040320260A17E0268012922F0200208BF9A
:1014D00020320260E17E0268012922F0100218BF6A
:1014E00010320260217F0268012922F0080208BF41
:1014F00008320260617F0268012922F0040208BFFD
:1015000004320260D4E901C2D4E9033561691A43A7
:101510002A431143ACF101021143C16100200121B2
:10152000606284F82010B0BD10B586B0006846F641
:101530000002C4F2000200219042CDE90411CDE97D
:101540000211019134D046F20041C4F200018842F8
:1015500077D140F27861C2F200010A6843F6400098
:10156000C4F20200531C0B6052B9002100910168C3
:1015700041F000710160016801F000710091009973
:101580000021009150F8101C142441F0080140F88B
:10159000101C50F8100C032100F008000090009877
:1015A00040F20040C4F2020000F5006035E000BFE8
:1015B00043F64000C4F202000091016841F08061EE
:1015C0000160016801F080610091009940F278614A
:1015D000C2F200010A68531C0B6052B9002100914D
:1015E000016841F000710160016801F00071009133
:1015F00000990021009150F8101C402441F0020194
:1016000040F8101C50F8100C602100F0020000900F
:10161000009840F20040C4F20200019102210291C0
:1016200000210391032104910921059101A900F0F2
:1016300059FB20460521002200F0CCFF204600F097
:10164000B7FF06B010BD00007047000040F6D8316B
:10165000C2F20001884218BF704780B58AB040F6D8
:10166000D830C2F2000003AA01AB0021FFF71AFD37
:101670000398A0F20121062920D80138C1B2BDF893
:101680000420890051FA80F041F2FC3112BAC2F212
:101690000001120C31F8103021F8102001EB40004D
:1016A000BDF80610BDF8082009BA090C418011BA2E
:1016B0009DF80A20090C0381818082710AB0BDE87F
:1016C000804070477047000070470000704700007E
:1016D000B0B5044690F8200001281DD1022084F8FE
:1016E00020002068016821F00101016000F0D0FBBA
:1016F000054600BF20684068C00713D000F0C8FB53
:10170000401B0B28F6D3606A40F40030606205206D
:1017100084F820000120B0BD606A40F400206062BF
:101720000120B0BD00206062B0BD00007047000025
:1017300070470000704700007047000070470000CD
:10174000704700007047000070B5866D044600F0D9
:101750009FFB94F83510022928D105462068216C9A
:10176000026822F016020260426922F080024261A1
:1017700009B9A16C19B1016821F008010160016883
:1017800021F00101016000BF20680068C00715D08A
:1017900000F07EFB401B0628F6D320206065032066
:1017A00084F83500002184F8341070BD8020606515
:1017B0000120002184F8341070BD00BFE06D3F218E
:1017C00001FA00F0B060012084F83500002000210B
:1017D00084F8341070BD000090F83510022909D14A
:1017E000052180F835100068016821F001010160D1
:1017F000002070478021416501207047F0B581B01D
:101800000021009140F2F001C2F200010B68D0E922
:10181000166148F2B51537680822C1F64E358A4080
:101820003A42A3FB05350CD003681C68640708D551
:101830001C6824F004041C60B260426D42F0010296
:10184000426501228A403A4208D003685B691B0660
:1018500004D5B260426D42F00202426504228A4021
:101860003A4208D003681B689B0704D5B260426DFA
:1018700042F00402426510228A403A4219D00168BF
:101880000B681B0715D5B2600B680A685B0309D4A7
:10189000D20509D40A6822F008020A60016C29B94D
:1018A00007E000BF110341D4016C11B10446884721
:1018B0002046C26D202101FA02F33B4243D0016869
:1018C0000F68FF063FD5B36090F835700B68052FA1
:1018D0001CD123F016030B604B6923F080034B618E
:1018E000036C0BB9836C1BB10B6823F008030B600E
:1018F0003F219140B160012180F83510016D002237
:10190000002980F8342054D158E000BF0A685B03F6
:1019100010D4D20512D40A6822F010020A60012104
:1019200080F83510002180F8341007E0816C002920
:10193000BCD1BEE7110301D4416C00E0C16B11B111
:10194000044688472046416DC1B3416DC9072ED07A
:10195000052180F835100168AA0A0B6823F00103FD
:101960000B60009B0133934200931AD80B68DB078E
:1019700017D0009B01339342009312D80B68DB070A
:101980000FD0009B0133934200930AD80B68DB070A
:1019900007D0009B01339342009302D80B68DB070A
:1019A000DFD1012180F83510002180F83410C16C9E
:1019B00021B101B0BDE8F040084700BF01B0F0BD63
:1019C0002DE9F041044600F063FAECB1054602202F
:1019D00084F835000020216884F83400086820F07D
:1019E0000100086021680868C00711D000F050FAB3
:1019F000401B0528F6D9032520230320636584F8BE
:101A00003550BDE8F08100BF0120BDE8F08100BF86
:101A1000086848F23F02CFF21002D4E9013500EA2B
:101A2000020C04F10C0898E8C10143EA0C032B43B3
:101A30001843D4E9072E304338431043626A40EA22
:101A40000E00042A40EA08031CD1206BD4E90A2EB8
:101A500040EA0E00184308604869BEF1000F20F00C
:101A6000030040EA020040F0040C11D0B8F5005F1A
:101A700036D0B8F1000F45D1022A46D0012A3BD01A
:101A800032B942E00B60486920F0070040EA020CDE
:101A900001F0F8004AF6AB221038CAF6AA22A0FBE1
:101AA00002231A0941F2D453C1F814C0C0F601034D
:101AB0009A5C40F2FF335F284FF03F0021EA0301B8
:101AC00000FA02F088BF0431C4E9161288600023CE
:101AD00001250020636584F83550BDE8F08100BF22
:101AE000032AD5D8012540230120DFE802F0030EA8
:101AF000030500BF82E700BFAEF1C070B0FA80F00E
:101B0000400904E0032A04D3C2D1CEF300600028C8
:101B1000BED0012540230120636584F83550BDE81F
:101B2000F081000090F834C0BCF1010F04BF022026
:101B3000704770B54FF0010C80F834C0D0F858E011
:101B400090F835C0BCF1010F38D14FF0020C80F88D
:101B500035C04FF0000CC0F854C0D0F800C0846805
:101B6000056CC06DDCF80060402C26F48026CCF8B3
:101B70000060CCF804300B4604BF13460A463F21F0
:101B800001FA00F0CCF80830CCF80C20CEF80800B0
:101B9000DCF8000040F01600CCF800002DB1DCF8B5
:101BA000000040F00800CCF80000DCF8000040F035
:101BB0000100CCF80000002070BD00BF002180F8BB
:101BC0003410022070BD0000B0B5044600F060F98A
:101BD000054640F21000C2F200000078611C18BFF8
:101BE000044400BF00F054F9401BA042FAD3B0BD3A
:101BF00010B501381F2800F26780DFE800F011659A
:101C000065656565654765656565656565316565D6
:101C1000656565656565656565656565655300BF91
:101C200040F20C54C2F20004012060710DF06EFD10
:101C3000012849D0A06904F120010CF09FFB206A23
:101C4000002808BF10BD4EF60450CEF200004FF041
:101C500080510160BFF34F8FBFF36F8F34E000BF3F
:101C60000A2007F0DFFE40F20C50C2F2000041787B
:101C700041F001014170817841F0010181700079EA
:101C800010B3BDE8104008F023B800BF0B2007F0E8
:101C9000C9FE40F20C50C2F20000C17841F00101CF
:101CA000C17010BD092007F0BDFE40F20C50C2F219
:101CB0000000017841F001010170007920B1BDE818
:101CC000104008F005B800BF10BD000043F61441F5
:101CD000C4F201010A68024214BF08607047FFF7AE
:101CE00087BF00002DE9F04F83B000F1200200F122
:101CF0003E4741F60045009207F1FF77C4F2020526
:101D000008224FEAB726A84208BF072200254FF055
:101D100000084FF00009072E38BF4FEAB7220192A2
:101D20000AE000BF09F1010908F10208B9F1100F3A
:101D300005F1040500F0A2800F68012202FA09FEF5
:101D400017EA0E0AEED0D1F804C003220CF0030704
:101D50007E1E02FA08F4012E6FEA040B12D8846882
:101D6000CE6804EA0B0406FA08F63443846044683B
:101D700024EA0E06CCF3001404FA09F42643466064
:101D800004E000BF032F01D103271EE0C6688C6862
:101D900006EA0B0604FA08F42643022FC66014D1A3
:101DA0006FF00302009E02EA590756F807C005F0DB
:101DB0001C040F220B69A2402CEA0202A3401A4322
:101DC000F251D1F804C00CF00307026807FA08F3D7
:101DD00002EA0B021A431CF4403F0260A2D0002228
:101DE00043F644030292C4F202031A6843F6004425
:101DF00042F480421A601A68C4F2010402F480427C
:101E00000292029A29F003024FF6084C2244CFF6C0
:101E1000FF7C52F80C3005F00C070F26BE40B34390
:101E2000019E06FA07F73B4342F80C30A2684B6864
:101E300042EA0A0743F60C4CDE0258BF22EA0A07C0
:101E4000A760C4F2010CDCF800209E0242EA0A07F7
:101E500058BF22EA0A07CCF8007062689E0342EA83
:101E60000A0758BF22EA0A0767602268DB0342EAD2
:101E70000A0758BF22EA0A07276053E703B0BDE804
:101E8000F08F0000002A08BF09048161704700003C
:101E900045F25430C2F2000000687047002804BFC9
:101EA00001207047F0B581B0044690F83D0028B994
:101EB000002084F83C00204600F07CFA242084F8BE
:101EC0003D002068016821F001010160016841F4D2
:101ED00000410160016821F40041016000F088FCCC
:101EE000636848F2A16CC0F2010C40F60011C0F228
:101EF0003D0163453CBF48F28041C0F21E0188426B
:101F000002D2012001B0F0BD4DF68361C4F21B3155
:101F1000A0FB01122168970CD1F804E04FF49676EB
:101F20002EF03F0545EA92454D60774348F6381656
:101F30000D6AC0F24106A7FB067625F03F07634510
:101F400038BF960C721C3A430A62CA6948F2A0660E
:101F50004CF6FF77C0F20106B34222EA07020BD823
:101F600001385B00B0FBF3F001306FF31F30042841
:101F700098BF04201BE000BFA768013857B119279C
:101F80007B43B0FBF3F001306FF31F3070B100F50D
:101F9000804007E003EB4303B0FBF3F001306FF345
:101FA0001F3018B100F5004001E000BF01201043D0
:101FB000C8610868D4E9072320F0C0001043184323
:101FC0000860886848F2FF3204F10C0790438CCF18
:101FD00018431043A6698860C86820F0FF003843A2
:101FE0003043C860086840F00100086000202021EC
:101FF000206484F83D10206384F83E0001B0F0BDF9
:102000002DE9F04784B0994616460F460446FFF77F
:102010003FFF94F83D10202927D10546206800BFD6
:10202000816989071CD5FFF733FF411B20681A29F6
:10203000F6D381698907F3D500202021206384F835
:102040003D1084F83E00206C04F13C0A40F0200072
:102050002064022000218AF8001004B0BDE8F08757
:10206000A2461AF83C1F012904D1022004B0BDE8A1
:10207000F08700BF01228AF800200368DDE90D180F
:102080000C9ADB0703D1036843F001030360036884
:1020900023F400630360222084F83D00402084F88C
:1020A0003E000020206462626185608D3946208593
:1020B0000020CFF6FF70E062204632464B46CDE965
:1020C000008502F081FE18B1012004B0BDE8F08760
:1020D000208D08B3022813D0012835D121680A6861
:1020E00022F480620A60002203924A6903928A699C
:1020F0000392039A0A6842F400720A602CE000BF5F
:1021000021680A6822F480620A600A6842F4006268
:102110000A60002203921AE00020039020684169BF
:102120000391816903910399016841F40071016091
:10213000202084F83D00002084F83E0000218AF829
:10214000001004B0BDE8F0870021039121684A69BE
:1021500003928969039103990427C0F201070CE0F7
:1021600010690870606A218D01306062481E208508
:10217000618D013961850104DAD080B203280FD85E
:1021800002284AD001282DD1204641462A4603F094
:10219000B9F8002898D12068616A0069E1E700BFBA
:1021A000204641462A4603F0ADF800287FF48CAF64
:1021B0002068616A00690870606A2268411C208D8D
:1021C000616201382085638D013B638553695B073C
:1021D000D1D580B20328C3D1106820F4806010608C
:1021E000BEE700BF2046394600224346009502F074
:1021F00037FF00287FF468AF2068616A026822F424
:102200008062026000690870606A218D013060623E
:10221000481E2085608D01386085204639460022A1
:102220004346009502F01CFF00287FF44DAF206864
:10223000616A026842F40072026000690870606AB4
:102240002268411C6162218D01392185618D01392E
:1022500061851169417085E72DE9F04383B09946A6
:1022600016460F460446FFF713FE94F83D1020294A
:1022700024D10546206800BF816989071AD5FFF778
:1022800007FE411B20681A29F6D381698907F3D517
:1022900000202021206384F83D1084F83E00216C4A
:1022A00041F02001216484F83C00022003B0BDE825
:1022B000F08300BF94F83C10012903D1022003B041
:1022C000BDE8F083012284F83C200368DDE90B18A7
:1022D0000A9ADB0703D1036843F001030360036834
:1022E00023F400630360212084F83D00402084F83B
:1022F0003E000020206462626185608D3946208541
:102300000020CFF6FF70E062204632464B46CDE912
:10231000008502F0E3FD18B1012003B0BDE8F083B1
:10232000208D98B9204641462A4602F03BFE88B3EC
:10233000206C0428F0D12068016841F4007101602C
:10234000012003B0BDE8F0830004EBD020464146F5
:102350002A4603F01FF80028EAD1616A226808467D
:1023600010F8013B1361238D6062581E2085678D34
:10237000013F678557697F07E6D50704E4D04878B1
:102380001061881C6062981E2085618D013961850D
:10239000DAE700BF2068016841F400710160202085
:1023A00084F83D00002084F83E0084F83C0003B02F
:1023B000BDE8F0832DE9F04786B045F60046006899
:1023C000C4F200060025B0420595CDE903550295FB
:1023D000019503D006B0BDE8F08700BF43F6300793
:1023E0000095C4F20207386801AC40F00400386080
:1023F00038684FF0120800F0040000900098009533
:1024000038684FF0030940F00100386038684FF039
:10241000040A00F00100009000984FF40070019051
:1024200006F5D6302146CDE90285CDF81090CDF8DD
:1024300014A0FFF757FC4FF48070CDE9010803A802
:1024400080E8200606F5D2302146FFF74BFC0095C8
:10245000386940F400003861386900F400000090E9
:10246000009806B0BDE8F08740F2100045F2543104
:10247000C2F20000C2F2000100780A68104408604D
:102480007047000080B543F60040C4F202000168C6
:1024900041F400710160016841F4806101600168EC
:1024A00041F480710160032000F0C0F80F2000F0BB
:1024B00005F800F05BF8002080BD000070B586B024
:1024C000002543F640010195C4F202010A68044662
:1024D00042F001020A60096801A801F001010191BE
:1024E0000199694600F064F9049E002E18BF012688
:1024F00000F07EF94DF68361B040C4F21B31A0FBC1
:1025000001014FF0FF3000EB914141F2C400C2F2F3
:1025100000004FF0804240F2E733C0E90021C0E9FB
:1025200002530561856100F0B1FE08B106B070BDCF
:1025300041F2C400C2F2000000F010FF0028F5D103
:102540001C2000F035F80F2C0CD81C20214600224E
:1025500000F040F840F214010020C2F200010C60CB
:1025600006B070BD012006B070BD000082B0002032
:1025700043F640010190C4F202014A6842F48042ED
:102580004A604A6802F480420192019A0090086809
:10259000002240F08050086008680F2100F0805051
:1025A000009000986FF0010002B000F013B8000036
:1025B000002848BF704700F01F01012202FA01F114
:1025C0001C2202EAD0004EF20012CEF2000281502C
:1025D0007047000010B54EF60C5CCEF2000CDCF833
:1025E0000030C3F3022E8EF00704042C28BF04240D
:1025F000BEF103034FF0FF3E0EFA04F438BF002390
:10260000A14399400EFA03F39A43114300F00F02DD
:1026100000F160430901043A03F564436244002871
:1026200048BF02F10C03197010BD00004EF60C51AA
:10263000CEF200010A684FF6FF031A4060F30A2247
:1026400042F0806040F0FD7008607047002804BFD1
:10265000012070472DE9F04143F60808C4F2020852
:102660000446D8F8F8030D4600F00700814207D968
:1026700088F8F853D8F8F80300F00700A84277D19B
:102680002068810717D5410705D5D8F8001041F417
:10269000E051C8F80010010705D5D8F8001041F442
:1026A0006041C8F80010D8F80010A26821F0F001CD
:1026B0001143C8F80010C00740D1D8F8F80300F063
:1026C0000700854207D288F8F853D8F8F80300F0DD
:1026D0000700A8424CD12068410707D5D8F8001060
:1026E000E26821F4E0511143C8F80010000708D552
:1026F000D8F80000216920F4604040EAC100C8F821
:10270000000000F09DF8D8F8001041F27852C1F3B3
:102710000311C0F60102515C40F2F00220FA01F10F
:1027200040F21400C2F200000068C2F20002116020
:10273000FFF7C4FE0020BDE8F08100BF6068811E85
:10274000022907D258F8081C89015CBF0120BDE8A6
:10275000F08111E0012807D158F8081C89035CBFFB
:102760000120BDE8F08107E058F8081C890703D470
:102770000120BDE8F08100BFD8F8001021F003016E
:102780000843C8F80000FFF783FB064641F288378C
:10279000D8F80000616800F00C00B0EB810F8CD01D
:1027A000FFF776FB801BB842F2D90320BDE8F08129
:1027B0000F22026043F60802C4F20202136803F01B
:1027C00003034360136803F0F0038360136803F4AA
:1027D000E053C360D2F800C04FF4E05303EADC03D7
:1027E0000361D2F8F80300F00700086070470000AA
:1027F00040F2F00043F60801C2F20000C4F2020108
:102800000068096841F28852C1F38221C0F60102D2
:10281000515CC8407047000040F2F00043F60801E8
:10282000C2F20000C4F202010068096841F2885255
:10283000C1F34231C0F60102515CC840704700004C
:1028400010B543F60404C4F202046168C1F38101C7
:1028500042F20040C0F2F400DFE801F002040A0294
:1028600010BD00BF41F60030C0F2B70010BD00BF80
:10287000206821682368490241F60031C0F2B7019F
:1028800000F03F02C3F388105CBF42F20041C0F287
:10289000F401A1FB00010023FDF7FCFC21680222EA
:1028A000C1F3014102EB4101B0FBF1F010BD0000AA
:1028B000002804BF012070472DE9F04182B0044692
:1028C000007843F60006C007C4F202060CD0B068D8
:1028D00000F00C00042840F081803068800303D5AC
:1028E0006068002800F06881207880071BD5B068F8
:1028F00010F00C0F09D0B06800F00C00082840F070
:1029000087807068400200F183803068800703D5BB
:10291000E068012840F050813068216920F0F8001B
:1029200040EAC10030602078000713D420784007C7
:102930002AD4A569002D00F03A81B06800F00C009F
:10294000082840F0A580012D40F00E81012002B042
:10295000BDE8F0816069002800F082800020C4F2A8
:1029600047200121C0F8801EFFF792FA054600BFFC
:10297000706F8007DAD4FFF78BFA401B0228F7D973
:10298000032002B0BDE8F081306C5FEAC0080AD4D1
:1029900000200190306C40F080503064306C00F0CA
:1029A00080500190019847F20007C4F20007386890
:1029B000C00547D4386840F480703860FFF768FA83
:1029C000054600BF3868C0053CD4FFF761FA401BDC
:1029D0000228F7D9032002B0BDE8F081B06800F00A
:1029E0000C00082803D1706840023FF576AF61689B
:1029F0003068B1F5803F07D0B1F5A02F40F09A8044
:102A000040F480203060306840F4803030609AE0DC
:102A1000E068002840F20000C4F247205CD00121A9
:102A20000160FFF735FA0546306880073FF574AF5F
:102A3000FFF72EFA401B0228F6D9032002B0BDE8AA
:102A4000F08100BFA168306F012905D0052955D15B
:102A500040F004003067306F40F00100306756E00E
:102A60000020C4F247200021C0F8801EFFF710FAB2
:102A7000054600BF706F80077FF558AFFFF708FA73
:102A8000401B0228F6D9032002B0BDE8F08100BF48
:102A90000027C4F2472700203866FFF7F9F9022D16
:102AA00005460DD13068800140F18A80FFF7F0F9CA
:102AB000401B02284FF00300F4D902B0BDE8F081BA
:102AC0003068800173D5FFF7E3F9401B02284FF00F
:102AD0000300F5D9F1E700BF00210160FFF7D8F945
:102AE000054600BF306880077FF51DAFFFF7D0F9BE
:102AF000401B02284FF00300F4D9DEE720F001006C
:102B00003067306F002920F0040030677AD0FFF77B
:102B1000BFF9054641F28837306F800700F18480A5
:102B2000FFF7B6F9401BB842F6D9032002B0BDE862
:102B3000F08100BF20F4803030603068002920F43C
:102B4000802030607AD0FFF7A3F905463068800313
:102B50003FF5CAAEFFF79CF9401B6428F6D9032065
:102B600002B0BDE8F08100BF7068E16900F4800246
:102B70008A4221D1216A00F03F028A421CD147F6E5
:102B8000C071626A0140B1EB821F15D1A16A4FF694
:102B9000FF73C903994300F44032A1F580318A42A2
:102BA0000AD1E16A00F07060B0EB016F04D100203F
:102BB00002B0BDE8F08100BF012002B0BDE8F081A5
:102BC00004F11C052FCD084340EA8210D9034FF6CB
:102BD000FF729143A1F5803140EA056008437060BF
:102BE00001203866FFF754F9044600BF30688001C1
:102BF000DDD4FFF74DF9001B02284FF00300F5D993
:102C00005BE700BFFFF744F9054641F2883700BF94
:102C1000306F800708D5FFF73BF9401BB8424FF0F3
:102C20000300F5D949E700BFB8F1000F3FF581AEC9
:102C3000306C20F0805030647BE600BFFFF728F94D
:102C4000054600BF306880037FF54EAEFFF720F9E0
:102C5000401B64284FF00300F4D92EE770B528B16B
:102C6000416A29B100210161142106E0012070BDF3
:102C70004168B1F5827F02D01C210022425000261B
:102C8000866290F8511029B980F85060054600F02E
:102C90003DF82846022180F8511090E82E0002F4F9
:102CA00082720C6803F4044324F040040C601A445C
:102CB00005F4006305691A4405F0020345691A44E6
:102CC00005F001038569C4691A4405F400731A44C8
:102CD00004F03803046A1A4404F08003846A1A4337
:102CE00004F400531A430A60436A042202EA1542BC
:102CF00003F010031A444A60CA6922F40062CA61F0
:102D00000121466580F85110304670BD2DE9F04F25
:102D100087B0044643F200070068C4F201070026AA
:102D2000B8420696CDE904660396029602D007B033
:102D3000BDE8F08F43F630000196C4F2020041690D
:102D400002AD41F480514161416946F2404801F4CD
:102D5000805101910199019601684FF0020941F0FB
:102D60000201016001684FF0030A01F002010191C4
:102D70000199019601684FF0050B41F001010160D6
:102D80000068294600F00100019001981820029087
:102D900007F55440C4F20208CDE90396CDF814A01B
:102DA000CDF818B0FEF79EFF8020CDE9020904A8F7
:102DB00080E8400C07F550402946FEF793FF40F6A7
:102DC0002845C2F200054FF440304FF0C0674FF481
:102DD0008069C5E908062846C5E90087C5E9026695
:102DE000C5E90496C5E90666FEF7EAFD002818BFA6
:102DF000FEF71EF8E564AC6340F6884508F118005C
:102E0000C2F200054021C5E9000705F108000022D3
:102E100080E806024FF40030C5E908022846C5E9FB
:102E20000522EA61FEF7CCFD002818BFFEF700F886
:102E3000A564AC6307B0BDE8F08F00002DE9F04356
:102E400083B01E4615460F460446FFF721F894F856
:102E500051108146012909D1002F4FF0010018BF00
:102E6000002D0FD103B0BDE8F08300BF6068B0F55E
:102E7000827F0DD104294FF00200F3D1A16800290F
:102E8000EAD0EFE7002EEDD094F85000012803D1EE
:102E9000022003B0BDE8F083012084F8500094F8CC
:102EA0005100002104281CBF052084F851006165F1
:102EB000A563E687A6872763E6862068A686216441
:102EC00061640168490603D4016841F04001016072
:102ED0006168731EE268B1FA81F1B3FA83F3DDF839
:102EE000288049095B09B2F5006F41EA030165D109
:102EF00031B137F8021BC1602763E08E0138E086EC
:102F0000012518F1010032D102E000BFFEF7C0FF39
:102F1000E08E18B9E08F002800F0B8802068816842
:102F200089070CD5E18E51B1012D08D1216B002507
:102F300031F8022BC2602163E18E0139E18681689C
:102F4000C907E3D0E18F0029E0D0C068A16B01255B
:102F500021F8020BA163E08F0138E087D6E700BFBC
:102F6000FEF796FFA0EB0900404580F0A580E08EBB
:102F700018B9E08F002800F08980206881688907EF
:102F80000CD5E18E51B1012D08D1216B002531F80E
:102F9000022BC2602163E18E0139E1868168C90795
:102FA000DED0E18F0029DBD0C068A16B012521F8BC
:102FB000020BA163E08F0138E087D1E739B139789E
:102FC0000173206B01302063E08E0138E08601251B
:102FD00018F1010032D101E0FEF75AFFE08E10B97E
:102FE000E08F002852D02068816889070ED5E18ED5
:102FF00061B1012D0AD1216B002509780173216B84
:10300000206801312163E18E0139E1868168C907B9
:10301000E2D0E18F0029DFD0C068A16B01250870E4
:10302000A06B0130A063E08F0138E087D4E700BFD8
:10303000FEF72EFFA0EB090040453DD2E08E08B917
:10304000E08F18B32068816889070ED5E18E61B1E1
:10305000012D0AD1216B002509780173216B2068AD
:1030600001312163E18E0139E1868168C907DFD032
:10307000E18F0029DCD0C068A16B01250870A06B2E
:103080000130A063E08F0138E087D1E720460221BC
:1030900001224346CDF8009004F09AF8B0B1606D7B
:1030A00040F02000606520206065002084F850001A
:1030B000012003B0BDE8F083012084F85100002016
:1030C00084F85000032003B0BDE8F08340F2F00024
:1030D000C2F20000006849F68171C1F25E61A0FB96
:1030E0000101480D4FF47A71484302906068B0F5D1
:1030F000827F0BD12046802100224346CDF80090EC
:1031000004F066F80028CAD121E000BF0298F0B1AF
:1031100002980138029020688168090617D5029943
:10312000A9B1029901390291816809060FD5029966
:1031300069B10299013902918168090607D502999E
:1031400029B102990139029180680006DED4A06895
:1031500038B9002001902068C16801918068019011
:103160000198012084F85100002084F85000606D1F
:10317000002818BF012003B0BDE8F08370470000AD
:103180007047000090F83C20012A04BF02207047DD
:10319000B0B501F108053CCDD1E900CE23F47C5354
:1031A00022F470521A432EF4F0431A432CF4E043F5
:1031B0001A4324F4C0431A432A43C96922F48042C3
:1031C000036811435964002180F83C100020B0BD11
:1031D00090F83C20012A4FF0020254D010B580F83C
:1031E0003D200268D2F804E0D2F808C00C682EF046
:1031F0007003234341F2FF74C4F20004A2425360FF
:103200000EDC40F2FF73C4F200039A4216DCB2F106
:10321000804F2BD040F20043C4F2000324E000BFF3
:1032200040F2FF33C4F201039A4213DC41F600037B
:10323000C4F200039A4219D0002313E040F60003C1
:10324000C4F200039A4211D040F60043C4F20003D6
:103250000AE000BF44F20003C4F201039A4205D021
:1032600040F20043C4F201039A4204D149682CF0B1
:103270008003194391600121002280F83D1080F8FD
:103280003C20BDE81040104670470000002804BFF5
:103290000120704710B5044690F83D0028B9002081
:1032A00084F83C00204600F01FF8022084F83D001E
:1032B0002068211D04F0CEF8012084F8460084F82F
:1032C0003E0084F83F0084F8400084F8410084F810
:1032D000420084F8430084F8440084F8450084F8F0
:1032E0003D00002010BD000080B582B0006842F2B1
:1032F0000001C4F20001884216D044F20041C4F239
:10330000010188420ED10020019043F64000C4F232
:103310000200416841F400314160406800F400302F
:103320000190019802B080BD0020009043F640005B
:10333000C4F202000168002241F48071016000685B
:10334000052100F48070009000982D20FFF742F9CD
:103350002D2002B0BDE88040FFF72AB990F83D105B
:1033600001291CBF01207047022180F83D10006830
:1033700041F2FF72C168C4F20002904241F00101C3
:10338000C1600DDC40F2FF71C4F20001884215DC1F
:10339000B0F1804F2AD040F20041C4F2000123E096
:1033A00040F2FF31C4F20101884213DC41F6000112
:1033B000C4F20001884219D0002113E040F6000158
:1033C000C4F20001884211D040F60041C4F200016D
:1033D0000AE000BF44F20001C4F20101884205D0B6
:1033E00040F20041C4F20101884206D1816801F037
:1033F0000701062904BF00207047016841F0010160
:10340000016000207047000041F20C11C2F200017F
:10341000884218BF704740F2244CC4F2010CDCF81B
:1034200014204DF21F13CFF6FF7340F2A03113FAB0
:1034300082F340F6B630C2F2000183424A8003D8DC
:10344000002200230A7018E092B2A2F28530B0F593
:10345000C77F05D808784A78431C0B7052080CE0E7
:10346000A2F2D170B0F5F97FEAD808784A78431C07
:103470006FF07F000B7040EA5202A3F10800C3B264
:10348000400140EAD300C3B2032B4A7003D804A022
:1034900050F8230002700020CCF80000704700BFF5
:1034A0001C0100201D0100201E0100201F01002022
:1034B00090F83C30012B04BF022070474FEAB20263
:1034C000032A00F28D80F0B5DFE802F002642646A0
:1034D0000368D1E900C5D1F80CE01C6A1A6A41F210
:1034E000FF7722F001021A621A4652F8186FC4F2EE
:1034F0000007BB427ADC40F2FF77C4F20007BB4210
:1035000000F38280B3F1804F00F0968040F20047D4
:10351000C4F200078EE000BF0768D1E900C5D1E919
:1035200002313C6A3A6A61F3071522F480723A620A
:103530003A4652F81C6F26F0F30645EA060124F4D9
:1035400020660CF00A0546EA052611603E62116805
:1035500021F00C01116080E00368D1E900E6D1E9B7
:1035600002C11C6A1A6A360222F480521A621A4692
:1035700052F81C5F4FF2FF07BE4325F4734561F319
:103580000F3624F420440EF00A0746EA050144EA07
:1035900007371CE00368D1E900E6D1E902C11C6AE3
:1035A0001A6A360222F010021A621A4652F8185F9E
:1035B0004FF2FF07BE4325F4734561F30F3624F045
:1035C000A0040EF00A0746EA050144EA0717116055
:1035D0001F6211684FEA0C2321F4406111603CE046
:1035E0000121002280F83C200846704740F2FF3756
:1035F000C4F20107BB4213DC41F60007C4F2000726
:10360000BB4219D0002713E040F60007C4F20007C0
:10361000BB4211D040F60047C4F200070AE000BFE9
:1036200044F20007C4F20107BB4205D040F2004754
:10363000C4F20107BB421BD126F00306354324F038
:103640000A070CF00A066EF3071537449D611F62E6
:103650009F6927F00C079F618B68116819431160FF
:103660000021BDE8F040002280F83C200846704769
:1036700046F00105E3E70000002804BF0120704781
:1036800010B5044690F83D0028B9002084F83C00AD
:10369000204600F01FF8022084F83D002068211D1C
:1036A00003F0D8FE012084F8460084F83E0084F838
:1036B0003F0084F8400084F8410084F8420084F818
:1036C000430084F8440084F8450084F83D0000205D
:1036D00010BD000080B586B040F200410068C4F221
:1036E0000101002288420592CDE903220292019253
:1036F00002D006B080BD00BF43F630000092C4F295
:103700000200436943F002034361436903F002038B
:103710000093009B0092036843F480730360006889
:1037200000F4807000900098402001900220CDE9C4
:1037300002020320059001F58E3001A90492FEF7E4
:10374000D1FA2D2005210022FEF744FF2D20FEF79F
:103750002FFF2E2005210022FEF73CFF2E20FEF732
:1037600027FF06B080BD000031B3042908D0082926
:1037700019BF4FF0450C41234FF0440C402302E0A9
:103780004FF0430C3F23C25C10F80C30012A4FF07D
:10379000010208BF012B63D10222082922D004298B
:1037A00054D180F83F2080F843204FEAB103032B27
:1037B0004FF0010220D953E090F83E2090F84230BB
:1037C000012A4FF0010208BF012B49D1022280F8E3
:1037D0003E2080F842204FEAB103032B4FF0010254
:1037E0000AD93DE080F8402080F844204FEAB10338
:1037F000032B4FF0010233D841F2A45C0068C0F6FD
:10380000010C5CF823C0C36801F01F0143EA0C03FC
:10381000C360036A02FA01F123EA01020262026A4A
:10382000114341F2FF72C4F200029042016219DCBE
:1038300040F2FF71C4F20001884221DCB0F1804FF8
:1038400036D040F20041C4F200012FE080F8412060
:1038500080F845204FEAB103032B4FF00102CBD98A
:103860001046704740F2FF31C4F20101884213DC78
:1038700041F60001C4F20001884219D0002113E092
:1038800040F60001C4F20001884211D040F6004128
:10389000C4F200010AE000BF44F20001C4F20101D9
:1038A000884205D040F20041C4F20101884206D1AD
:1038B000816801F00701062904BF002070470168F4
:1038C00041F00101016000207047000070B504461E
:1038D0000068C5680669B10716D515F0020113D056
:1038E0006FF002010161012121778069800703D017
:1038F0002046FFF789FD05E0204600F0D3F9204679
:1039000000F05AFB00202077700719D515F004004D
:1039100016D020686FF004010161022121778069CF
:1039200010F4407F04D02046FFF76EFD06E000BF94
:10393000204600F0B7F9204600F03EFB002020773B
:10394000300717D515F0080014D020686FF0080173
:10395000016104212177C069800703D02046FFF769
:1039600053FD05E0204600F09DF9204600F024FBC1
:1039700000202077F00619D515F0100016D0206829
:103980006FF01001016108212177C06910F4407FB8
:1039900004D02046FFF738FD06E000BF204600F0C7
:1039A00081F9204600F008FB00202077F00718BFBF
:1039B00015F0010002D1300609D412E020686FF042
:1039C00001010161204600F081FB300609D515F0A8
:1039D000800006D020686FF0800101612046FFF76B
:1039E000CDFB700609D515F0400006D020686FF0B9
:1039F00040010161204600F071FBB00658BF70BD68
:103A000015F0200008D021686FF0200220460A61DE
:103A1000BDE87040FFF7B4BB70BD0000F0B587B0E3
:103A2000006844F20042C4F2010200219042CDE954
:103A30000511CDE90311029138D00021C4F2010132
:103A4000884252D1002543F630000195C4F20200AD
:103A50000168002441F0010101600168C4F2020420
:103A600001F001010191019901950168022641F0DF
:103A7000100101600068012700F01000019001981A
:103A80004FF44060029002A92046CDE903650595F8
:103A90000697FEF727F94FF42060CDE90206CDE93D
:103AA0000455069704F580501CE000BF43F6300033
:103AB0000191C4F20200026842F002020260006852
:103AC00000F00200019001984FF4807002900220F3
:103AD000CDE90301032006900020C4F2020000F5A6
:103AE0008060059102A9FEF7FDF807B0F0BD000067
:103AF00090F83C30012B04BF022070474FEAB2021D
:103B0000032A00F2C980F0B5DFE802F0028A3264CD
:103B1000026840F20045136A166A23F0020326F099
:103B200001061662D2F804E0D2F818C08E6842F49A
:103B30008064C4F20105AC4243EA060305D1CE68B5
:103B400023F00C0326F0040633430E68AC4206D182
:103B5000D1E905472EF44075254345EA070E2CF0C0
:103B600073073743C2F804E097614968516389E0FD
:103B7000026840F20045136A176A23F4007327F4C1
:103B800080771762D2F804E0D2F81CC08E6842F445
:103B90008064C4F20105AC4243EA062307D1CE6833
:103BA00040F2FF47360223F44063BE4333430E68BE
:103BB000AC4206D1D1E905452EF44057254347EAEA
:103BC000051E2CF073073743C2F804E0D76149683B
:103BD000D16357E0026840F20047D2F820E0136A50
:103BE00042F4806623F4805313625368D4690D68ED
:103BF000D1F808C0C4F20107BE4204D14E6923F4D3
:103C0000804343EA861324F4E64646EA05265360D9
:103C1000D66149682EF4005747EA0C33116431E04D
:103C2000026840F20045136A176A23F0200327F068
:103C300010071762D2F804E0D2F818C08E6842F478
:103C40008064C4F20105AC4243EA061307D1CE6892
:103C50006FF0400723F0C00307EA061633430E68EF
:103C6000AC4206D1D1E905452EF44067254347EA29
:103C7000850E2CF4E64747EA0627C2F804E0976170
:103C80004968916300211362BDE8F040002280F88A
:103C90003C200846704700BF0121002280F83C20EC
:103CA0000846704770470000002804BF0120704795
:103CB00010B5044690F83D0028B9002084F83C0077
:103CC000204600F01FF8022084F83D002068211DE6
:103CD00003F0C0FB012084F8460084F83E0084F81D
:103CE0003F0084F8400084F8410084F8420084F8E2
:103CF000430084F8440084F8450084F83D00002027
:103D000010BD00007047000090F83C30012B04BF4C
:103D1000022070474FEAB202032A00F2FF802DE929
:103D2000F043DFE802F003B13F7F00BF036840F2D9
:103D300000461C6A1A6A24F0020422F001021A6288
:103D40001A46D3F804C052F818EF8F6843F4806520
:103D5000C4F20106B54244EA070405D1CF6824F055
:103D60000C0427F004073C430F68B54206D1D1E9A3
:103D700005582CF440762E4346EA080C2EF07306C4
:103D80003743C3F804C09F614F6809695F631C62D1
:103D90009F6947F008079F619F6927F004079F61AB
:103DA000B1E000BF036840F200481C6A1A6A24F4BC
:103DB000007422F480721A621A46D3F804C052F8D2
:103DC0001CEF8F6843F48065C4F20108454544EA5E
:103DD000072408D1CF6840F2FF463F0224F4406434
:103DE00027EA06063443D1F80090454506D1D1E9CB
:103DF00005562CF440572E4347EA061C2EF0730755
:103E000047EA0907C3F804C0DF614F680969DF6347
:103E10001C62DF6947F00807DF61DF6927F00407EC
:103E2000DF6170E0036840F20045D3F820C01A6AF1
:103E300043F4806722F480521A621A465C6852F892
:103E40001C8FD1F800E08E68C4F20105AF4204D1A6
:103E50004D6924F4804444EA85142CF4005747EA61
:103E6000063728F4E64646EA0E265C60DE614E68B8
:103E700009691E641F62DF6947F40067DF61DF695B
:103E800027F48067DF613DE0036840F200481C6A68
:103E90001A6A24F0200422F010021A621A46D3F89B
:103EA00004C052F818EF8F6843F48065C4F201082B
:103EB000454544EA071407D1CF686FF0400624F067
:103EC000C00406EA07163443D1F80090454506D1F0
:103ED000D1E905562CF440672E4347EA860C2EF4B0
:103EE000E64747EA0927C3F804C09F614F6809699C
:103EF0009F631C629F6947F400679F619F6927F475
:103F000080679F6109021368194311600021BDE8B1
:103F1000F043002280F83C2008467047012100222F
:103F200080F83C2008467047002804BF01207047F5
:103F300010B5044690F83D0028B9002084F83C00F4
:103F4000204600F01FF8022084F83D002068211D63
:103F500003F080FA012084F8460084F83E0084F8DB
:103F60003F0084F8400084F8410084F8420084F85F
:103F7000430084F8440084F8450084F83D000020A4
:103F800010BD000000680021C4F20101884218BF82
:103F9000704781B00020009043F64400C4F2020054
:103FA000016841F001010160006800F0010000902B
:103FB000009801B07047000070470000C1B10429AB
:103FC00008D0082914BF41224022825C012A05D072
:103FD00016E000BF3F22825C012A11D1022208298B
:103FE00010D0042914BF80F8412080F83F200BE056
:103FF00090F83E20012A03D1022280F83E2003E0FF
:104000000120704780F84020006801F01F01012264
:10401000036A02FA01F123EA01020262026A114311
:1040200041F2FF72C4F20002904201620CDC40F2E5
:10403000FF71C4F20001884214DCB0F1804F37D028
:1040400040F2004116E000BF40F2FF31C4F201012E
:10405000884215DC41F60001C4F20001884227D0F5
:10406000002115E040F60001C4F2000188421FD093
:1040700040F60041C4F20001884219D01FE000BFA1
:1040800044F20001C4F20101884211D040F2004123
:10409000C4F20101884212D1416C40F2004340F465
:1040A0008062C4F2010341F400419A42416406D1A6
:1040B000816801F00701062904BF002070470168EC
:1040C00041F0010101600020704700000068B0F17C
:1040D000804F18BF7047FEF7C7B900007047000057
:1040E00070B582B090F84250202D0BD113460A468D
:1040F0000146002A4FF0010018BF002B06D102B084
:1041000070BD00BF022002B070BD00BF0863002672
:1041100022204E638A628B854E6481F842000C68CF
:104120000D46C86B47F2C97C47F62911C0F6000C52
:10413000C0F60001C0E90FC147F24D61C0F60001B1
:10414000C0E91316211DFDF7EDFCE8B310206864EB
:104150002020294685F8420001200A6B012A40F000
:10416000B380002200920A6813680093526800929C
:10417000009A00BF0A6852E8032F0B6842F0100251
:1041800043E80326002EBAD00A6852E8032F0B68D2
:1041900042F0100243E80326002EB0D00A6852E82D
:1041A000032F0B6842F0100243E80326002EA6D02E
:1041B0000A6852E8032F0B6842F0100243E8032616
:1041C000002ED7D19BE700BF0196286829460268D8
:1041D0000192406801900198286928B3086850E866
:1041E000030F0A6840F4807042E80303E3B10868F3
:1041F00050E8030F0A6840F4807042E803039BB163
:10420000086850E8030F0A6840F4807042E803032E
:1042100053B1086850E8030F0A6840F4807042E820
:104220000303002BDAD100BF086850E8050F0A68C5
:1042300040F0010042E80503BBB3086850E8050FF1
:104240000A6840F0010042E8050373B3086850E8CB
:10425000050F0A6840F0010042E805032BB3086827
:1042600050E8050F0A6840F0010042E80503002B02
:10427000DAD11AE0086850E8050F0A6840F04000FB
:1042800042E80503DBB1086850E8050F0A6840F012
:10429000400042E8050393B1086850E8050F0A683A
:1042A00040F0400042E805034BB1086850E8050FB4
:1042B0000A6840F0400042E80503002BDAD10020F4
:1042C0000A6B012A3FF44DAF012002B070BD00001F
:1042D00070B541F60044C4F202040068A4F58432CB
:1042E000904218BF70BD40F288150529C2F2000542
:1042F00018D1686840F26D462860287AC2F200063C
:104300003070C8B1012826D002280BD120464FF4C6
:1043100080510022FDF7B6FD20464FF48061012256
:10432000FDF7B0FD41F2E410291DC2F200000522A4
:10433000BDE87040FFF7D4BE20464FF48051002204
:10434000FDF7A0FD20464FF480610022FDF79AFDA5
:1043500030780128D8D120464FF480510122FDF752
:1043600091FD20464FF480610022FDF78BFD3078EF
:104370000228CBD0D6E7000070470000B0B582B06D
:1043800001680A68CC684B6902F02F05202D04F003
:10439000200505D125B102B0BDE8B04003F0D0BA88
:1043A0005FEA027C1EBF03F0010E04F4907313EB6E
:1043B0000E0341D1036BD50618D5012B16D114F08D
:1043C000100313D0002201920A6801924A680192F8
:1043D000019A496949064BD4818DC28DC38D002B4A
:1043E00018BF914240F0068202B0B0BD13062DD531
:1043F00014F080032AD090F84120212AF4D1826859
:10440000B2F5805F03D10269002A00F07982026A66
:10441000531C036212784A60C28C013A1304C284AE
:10442000E2D1C86820F08000C860C86840F0400051
:10443000C86002B0B0BD00BFD30718BF14F48073CA
:1044400040F0E280530700F1E580EAE05206CBD568
:1044500014F04002C8D0CA6822F04002CA6020218D
:1044600080F8411002B0BDE8B04000F0A9BC00BF28
:10447000C26B11684B68858D99B2002900F0B48039
:10448000A94280F0B180C385D169B1F5807F00F089
:10449000A080016851E8031F026821F4807142E89E
:1044A0000313DBB1016851E8031F026821F4807136
:1044B00042E8031393B1016851E8031F026821F435
:1044C000807142E803134BB1016851E8031F026891
:1044D00021F4807142E80313002BDAD1016851E81E
:1044E000051F026821F0010142E80513BBB3016812
:1044F00051E8051F026821F0010142E8051373B37A
:10450000016851E8051F026821F0010142E8051326
:104510002BB3016851E8051F026821F0010142E850
:104520000513002BDAD11AE0016851E8051F026873
:1045300021F0400142E80513DBB1016851E8051F95
:10454000026821F0400142E8051393B1016851E887
:10455000051F026821F0400142E805134BB10168D4
:1045600051E8051F026821F0400142E80513002BC5
:10457000DAD1202180F8421000210163016851E85E
:10458000031F026821F0100142E80313DBB1016848
:1045900051E8031F026821F0100142E8031393B1B0
:1045A000016851E8031F026821F0100142E803137B
:1045B0004BB1016851E8031F026821F0100142E885
:1045C0000313002BDAD1C16B04460846FDF7BCF893
:1045D000204602214163818DC28D891A89B202B0C1
:1045E000BDE8B040FFF774BE8D427FF4FDAED269E6
:1045F000B2F5807F7FF4F8AE0222426302B0BDE8DC
:10460000B040FFF765BE00BF436C43F00103436455
:10461000530706D5BEF1000F03D0436C43F00203ED
:104620004364930706D5BEF1000F03D0436C43F0FB
:1046300004034364BCF1000F06D55EEA050303D012
:10464000436C43F008034364436C002B3FF4CCAE4F
:10465000920605D525B1044603F072F9216820467B
:104660004969426C01F0400102F00802891800F02B
:10467000B98000BF016851E8031F026821F49071FE
:1046800042E80313BBB3016851E8031F026821F439
:10469000907142E8031373B3016851E8031F026885
:1046A00021F4907142E803132BB3016851E8031F12
:1046B000026821F4907142E80313002BDAD11AE06A
:1046C000016851E8051F026821F0010142E8051365
:1046D000DBB1016851E8051F026821F0010142E8E1
:1046E000051393B1016851E8051F026821F001012B
:1046F00042E805134BB1016851E8051F026821F03B
:10470000010142E80513002BDAD1016B012924D104
:10471000016851E8031F026821F0100142E8031309
:10472000DBB1016851E8031F026821F0100142E883
:10473000031393B1016851E8031F026821F01001CF
:1047400042E803134BB1016851E8031F026821F0EE
:10475000100142E80313002BDAD1202180F8421027
:104760000021016301684969490640F1C38001687D
:1047700051E8051F026821F0400142E80513DBB152
:10478000016851E8051F026821F0400142E8051365
:1047900093B1016851E8051F026821F0400142E829
:1047A00005134BB1016851E8051F026821F0400173
:1047B00042E80513002BDAD1C16B002900F09A8082
:1047C00047F24162C0F60002044608460A65FDF75A
:1047D00003F800283FF408AEE06B016D02B0BDE8BD
:1047E000B04008470446FFF7C7FD0020606402B0F0
:1047F000B0BD00BF891A00BF026852E8032F0368EA
:1048000022F4907243E80325BDB3026852E8032FF7
:10481000036822F4907243E8032575B3026852E8F6
:10482000032F036822F4907243E803252DB3026836
:1048300052E8032F036822F4907243E80325002D09
:10484000DAD11AE0026852E8052F036822F001026B
:1048500043E80525DDB1026852E8052F036822F020
:10486000010243E8052595B1026852E8052F036867
:1048700022F0010243E805254DB1026852E8052FF8
:10488000036822F0010243E80525002DDAD1202239
:1048900080F8422000220263026852E8032F036876
:1048A00022F0100243E80325DDB1026852E8032F2D
:1048B000036822F0100243E8032595B1026852E82C
:1048C000032F036822F0100243E803254DB102686C
:1048D00052E8032F036822F0100243E80325002D5D
:1048E000DAD1022289B2426302B0BDE8B040FFF7DC
:1048F000EFBC00BF02B0BDE8B040FFF73DBD00BF58
:10490000026A32F8023B6FF35F234B60026283E579
:10491000002804BF0120704710B5044690F84100FC
:1049200028B9002084F84000204600F021F8242017
:1049300084F841002068C16821F40051C16020461C
:1049400003F07EF82068016921F49041016141691A
:1049500021F02A014161C16841F40051C160002089
:104960002021606484F8411084F84210606310BD17
:104970002DE9F04F87B00446006844F60001C4F208
:10498000000100268842CDE90566CDE9036602965E
:1049900000F0FA8041F20041C4F20101884200F0C7
:1049A000878041F20001C4F20101884240F0408159
:1049B000002743F630000197C4F202004169002548
:1049C00041F0100141614169C4F2020501F010019A
:1049D000019101990197016802AE41F00201016065
:1049E000016846F2280801F002010191019901973E
:1049F00001684FF0020941F00101016000684FF0C9
:104A0000030A00F0010001900198802002904FF00D
:104A1000070B05F580603146C4F20208CDE9039723
:104A2000CDF814A0CDF818B0FDF75CF94FF4007084
:104A3000CDE9020904A880E8800C28463146FDF73C
:104A400051F940F6E84508F58C60C2F200054FF0D8
:104A500000664FF4806985E8C1002846C5E90379FE
:104A6000C5E90577C5E907776F62FCF7A9FF00285C
:104A700018BFFCF7DDF9E563AC6340F6485508F56F
:104A80009260C2F200054021C5E9000605F1080068
:104A900080E882022846C5E90577C5E907776F6295
:104AA000FCF78EFF252600284FF0380769D1B5E0C6
:104AB00043F630000196C4F20200416946F228082C
:104AC00041F0200141614169C4F2020801F0200176
:104AD000019101990196016841F04001016000686F
:104AE00002A900F04000019001984FF48440029028
:104AF0000220CDE90306032005900820069000203F
:104B0000C4F2020000F5C050FDF7ECF840F608656D
:104B100008F58060C2F200054FF02067C5E9000784
:104B20004FF400304FF48069C5E908062846C5E90E
:104B30000266C5E90496C5E90666FCF741FF002850
:104B400018BFFCF775F9E563AC6340F6686508F5D6
:104B50008F60C2F200054021C5E9000705F1080099
:104B600080E842024FF44030C5E908062846C5E90E
:104B70000566EE61FCF724FF472600284FF0380752
:104B80004CD0FCF755F949E043F630000196C4F2E9
:104B90000200016941F480210161016901F4802171
:104BA000019101990196016841F0040101600068DA
:104BB00002A900F00400019001984FF440600290B7
:104BC0000220CDE90306032005900720069000206F
:104BD000C4F2020000F50060FDF784F840F6A85525
:104BE00046F22800C2F20005C4F202004FF0006154
:104BF0004FF4806285E843002846C5E90362C5E9B1
:104C00000566C5E907666E62FCF7DAFE00284FF01C
:104C100027064FF03C0718BFFCF70AF9304605217C
:104C20000022E551AC63FDF7D5FC3046FDF7C0FC32
:104C300007B0BDE8F08F000070B582B090F8425028
:104C4000202D0BD113460A460146002A4FF00100E1
:104C500018BF002B06D102B070BD00BF022002B009
:104C600070BD00BF002622200E638A628B854E64D1
:104C700081F842000C680D46C86B47F2C97C47F6C4
:104C80002911C0F6000CC0F60001C0E90FC147F2BF
:104C90004D61C0F60001C0E91316211DFCF742FF6B
:104CA00040B110206864202085F84200012002B045
:104CB00070BD00BF019628682946026801924068CD
:104CC00001900198286928B3086850E8030F0A6822
:104CD00040F4807042E80303E3B1086850E8030F32
:104CE0000A6840F4807042E803039BB1086850E80A
:104CF000030F0A6840F4807042E8030353B1086868
:104D000050E8030F0A6840F4807042E80303002B68
:104D1000DAD100BF086850E8050F0A6840F00100CA
:104D200042E80503DBB3086850E8050F0A6840F065
:104D3000010042E8050393B3086850E8050F0A68CC
:104D400040F0010042E805034BB3086850E8050F46
:104D50000A6840F0010042E80503002BDAD11EE0AA
:104D6000086850E8050F0A6840F0400042E8050373
:104D7000FBB1086850E8050F0A6840F0400042E8BF
:104D80000503B3B1086850E8050F0A6840F0400019
:104D900042E80503002B4FF000003FF45CAF0868C9
:104DA00050E8050F0A6840F0400042E80503002B78
:104DB000D6D1002002B070BD7047000070470000DF
:104DC00070470000FEE700002DE9F04782B004467E
:104DD00000689A460B9D0A9E0368914643F48062E0
:104DE000026002680F4642F48071016020464FF075
:104DF000011100223346009500F032F950B12068CD
:104E00000068C00544BF4FF400702064032002B066
:104E1000BDE8F08740F202082068C0F2010807F000
:104E2000FE0707612046414632462B4600F0FEF958
:104E300020B1012002B0BDE8F08700BF0020019042
:104E400020682A46416901918069314601900198A4
:104E5000204600F09FFAB0B92068BAF1010F09D0DE
:104E60004FEA19210161204631462A4600F092FAA4
:104E700048B920685FFA89F10161204631462A4627
:104E800000F088FA60B1206C0428D2D12068016853
:104E900041F400710160012002B0BDE8F08700BF5D
:104EA000206800220168334641F480710160204689
:104EB0004FF00111009500F0D3F800289FD147F082
:104EC000010C27682046414632462B46C7F810C0E1
:104ED00002B0BDE8F04700F0A9B900002DE9F043A9
:104EE00083B0044600680F4601680A9D0B9E41F49A
:104EF000807199469046016020464FF001110022D2
:104F00002B46009600F0ACF850B120680068C00550
:104F100044BF4FF400702064032003B0BDE8F08369
:104F2000206807F0FE0101610221C0F20101204664
:104F30002A46334600F07AF920B1012003B0BDE8DB
:104F4000F08300BF00200290206832464169029140
:104F50008069294602900298204600F01BFA58B159
:104F6000206C0428E9D12068016841F400710160D7
:104F7000012003B0BDE8F0832068B9F1010F0AD029
:104F80004FEA1821016120462946324600F002FA14
:104F90000028E5D120685FFA88F10161002003B0A4
:104FA000BDE8F08370B50368044653F8140F40075A
:104FB00011D40E46481C29D086BB00BF1868400596
:104FC00027D4FCF765FF236853F8140F400737D543
:104FD00018684007F2D5002070BD00BF1868400770
:104FE000F9D41868400514D418684007F3D4186839
:104FF00040050ED418684007EDD41868400508D461
:10500000186840074FF0000048BF70BD18684005A1
:10501000E4D56FF480601860042012E0154603E0C8
:1050200053F8140F4007D6D418684005F1D4FCF7A4
:105030002FFF401B2368B042F2D958694007EFD4D4
:10504000202000212022216384F83D2084F83E1096
:10505000226C10432064012084F83C1070BD0000D5
:105060002DE9F041054600681E46144601F47F0212
:1050700001338FB242D0DDF81880B2F5803F40F0A6
:10508000878040693840C01BB0FA80F040098442F4
:1050900040F0C8804EB924E040693840C01BB0FAE7
:1050A00080F04009844240F0BD80FCF7F1FEA0EBA7
:1050B00008012868B142EFD941693940C91BB1FAEA
:1050C00081F149098C42E7D19BE000BF406938403B
:1050D000C01BB0FA80F0400984424FF0000040F05D
:1050E000A280FCF7D5FE286841693940C91BB1FA96
:1050F00081F149098C42E9D183E000BFB2F5803FDC
:1051000024D100BF41693940C91BB1FA81F1490975
:105110008C4240F0878041693940C91BB1FA81F166
:1051200049098C4240F07E8041693940C91BB1FA7F
:1051300081F149098C4275D141693940C91BB1FAE5
:1051400081F149098C42DDD06CE000BF81693940B2
:10515000C91BB1FA81F149098C4263D18169394097
:10516000C91BB1FA81F149098C425BD1816939408F
:10517000C91BB1FA81F149098C4253D18169394087
:10518000C91BB1FA81F149098C42DFD04AE000BF66
:1051900080693840C01BB0FA80F04009844241D198
:1051A00046B923E080693840C01BB0FA80F040095E
:1051B000844237D1FCF76CFEA0EB08012868B142AD
:1051C000F0D981693940C91BB1FA81F149098C4292
:1051D000E8D116E080693840C01BB0FA80F0400981
:1051E00084424FF0000018BFBDE8F081FCF750FE8C
:1051F000286881693940C91BB1FA81F149098C429B
:10520000E8D100202021286385F83D1085F83E0074
:10521000296C41F02001296485F83C000120BDE89B
:10522000F08100BF0020BDE8F0810000F0B581B042
:10523000044600681D4643698FB203EA0701B9427C
:1052400002D1002001B0F0BD4169164601323CD0C8
:10525000490512D47EB300BFFCF71AFE411B20683B
:10526000B14203D941693940B9422BD14169394032
:10527000B942E6D041694905EED5016841F40071B3
:1052800001606FF4806141610420002120222163CC
:1052900084F83D2084F83E10226C1043206484F88A
:1052A0003C10012001B0F0BD41693940B942C8D07D
:1052B00041694905E1D4FCF7EBFD206841693940BB
:1052C000B942F1D02020E0E741694905D5D44169D0
:1052D0003940B942B5D041694905CED44169394018
:1052E000B942AED041694905C7D441693940B94294
:1052F000A7D041694905C0D441693940B942E3D1D9
:105300009FE7000070B504460068154650F8143F4A
:105310005A063DD40E4629B926E000BF50F8141FA6
:10532000490635D40168C90621D4FCF7B1FD411BFB
:105330002068B142F2D941694906EFD4002020210A
:10534000206384F83D1084F83E00206C40F020007B
:1053500018E000BFFCF79CFD206850F8141F4906B8
:10536000ECD50168490613D40168C906F2D56FF07F
:105370001001016000202021206384F83D1084F892
:105380003E00206C2064002084F83C00012070BDA9
:10539000002070BD70B50368044653F8140F000672
:1053A00011D40E46481C29D086BB00BF18684005A2
:1053B00027D4FCF76DFD236853F8140F000637D58A
:1053C00018680006F2D5002070BD00BF18680006FE
:1053D000F9D41868400514D418680006F3D4186886
:1053E00040050ED418680006EDD41868400508D4AE
:1053F000186800064FF0000048BF70BD18684005EF
:10540000E4D56FF480601860042012E0154603E0D4
:1054100053F8140F0006D6D418684005F1D4FCF7F1
:1054200037FD401B2368B042F2D958690006EFD41B
:10543000202000212022216384F83D2084F83E10A2
:10544000226C10432064012084F83C1070BD0000E1
:1054500088B0072006F0DEFEFBF7CEF858B100BF9B
:10546000642006F0D7FEFBF7C7F80028F8D102E069
:10547000642006F0CFFE04F01DFD0028F8D140F2B4
:10548000306BC2F2000B0BF114000BF104010BF1B5
:1054900010020490CDE90221FBF7C6F804F036FBB8
:1054A00041F22C2041F2DC529FED3F0ADFED3F0A32
:1054B000C2F20000C0F60102002100F0D3FF40F26A
:1054C000D45740F20C55C2F20007C2F2000507F1B2
:1054D0003C0405F1680905F1380120464A460AF006
:1054E00031FA95ED0E0A95ED0F1A95ED102A002070
:1054F00087ED000A87ED011A87ED022A85ED030A80
:1055000085ED041A85ED052A06F0C0FE09F070F954
:10551000A86140F69470C2F200001021C161FDF74D
:105520009DFB002818BFFBF783FC40F22006C2F267
:105530000006301D05F12401082201F0AFFD012015
:1055400028714CF63130C3F613304EF23C514DF217
:105550004C520BF13803C3F6A021CBF6FF3207C340
:1055600005F14400079005F14C0040F2F4089FED6E
:10557000EBAA9FEDEBBA9FEDEBCA9FEDEB8A06908D
:1055800005F148009FEDE9DA9FEDE9EA9FEDE19A28
:105590009FEDE1FA05F15C0AC2F20008059005F101
:1055A0001E00019000942FE100A08C4500808945E9
:1055B00041F2873004F030FCDBED050ADBED061A22
:1055C000D6ED062AD6ED073A9BED077AD6ED084AC6
:1055D00061EEA33A60EEA22A72EEA32A67EE243AA5
:1055E0009BED015A9BED026AD6ED0F5A73EEA22A8B
:1055F000D6ED103A9BED034AD6ED114AC5ED172AB8
:1056000066EE232A65EE253A97ED093A73EEA22A53
:1056100064EE243A73EEA22A97ED141A97ED152A38
:1056200033EE223AD8ED002AD8ED013A97ED160A6A
:10563000D8ED024A62EE233A61EE222A72EEA32AE4
:1056400060EE243AD7ED0C4A73EEA22A74EEA22A39
:10565000C5ED1A2AD6ED092AD6ED0A3AD6ED0B4A3F
:1056600061EEA33A60EEA22A72EEA32A67EE244A04
:10567000D6ED123A74EEA22AD6ED134AC5ED182AD9
:1056800066EE242A65EE233A73EEA22AD6ED143A8A
:10569000D8ED035A64EE233AD7ED0A4A73EEA22AF4
:1056A000D8ED043A74EEA22A62EE233A61EE254A5E
:1056B00074EEA33AD8ED054AD7ED0D5A60EE244AB0
:1056C00074EEA33A75EEA33AC5ED1B3AD6ED0D3A4A
:1056D000D6ED0C4A61EEA31AD6ED0E3A60EEA40A9E
:1056E00070EEA10A27EE237A37EE207A85ED197A3B
:1056F00096ED167AD6ED150A26EE076A96ED177A1C
:1057000025EE205A35EE065A24EE074A97ED0B6A2D
:1057100034EE054A98ED075A36EE044A98ED066ACB
:1057200022EE052A98ED085A21EE061A31EE021AE9
:1057300020EE050A97ED0E2A30EE010A32EE000A3D
:1057400085ED1C0A97ED000A95ED031A85ED030A15
:1057500021EE0A1A20EE0B0A30EE010A23EE0C1A93
:1057600031EE000A87ED000A97ED010A95ED041A63
:1057700085ED040A21EE0A1A20EE0B0A30EE010A2A
:1057800022EE8C1A31EE000A87ED010A97ED020A2B
:1057900095ED051A85ED050A21EE0A1A20EE0B0A91
:1057A00030EE010A24EE0C1A31EE000A87ED020AEF
:1057B0002046B0EE480A51463A464B4685ED0E3A31
:1057C000C5ED0F2A85ED104A0AF00AFA0799DDE9BE
:1057D000053220460AF0CAFF95ED110A95ED121A1E
:1057E00095ED132A20EE0D0A21EE0D1A22EE0D2A58
:1057F00080EE0E0A81EE0E1A82EE0E2A85ED140A54
:1058000085ED151A85ED162A01204FF0FF3108F0BD
:10581000C1FB0128F8D12878400720D5287800F06E
:10582000FB01284600F8251B0499FAF7BDFE9BED05
:10583000050A9BED061A9BED072A9BED0E3A9BEDA0
:105840000F4A9BED105A30EE430A31EE441A32EE05
:10585000452A8BED050A8BED061A8BED072A687831
:1058600040070AD568780BF1200200F0FB00687051
:10587000039905F12E00FAF757FEA87840077FF547
:105880009BAEA87800F0FB00A870DDE90101FAF7F3
:10589000B1FFE8799BED040A012821D15446CA469C
:1058A00041F22C29C2F200094846F0EE490A00F004
:1058B00023FD99ED080AB5EE400AF1EE10FA07DA79
:1058C00041F22C20C2F200000021B0EE4F0A01622A
:1058D000BDEEC00AD146A246009C10EE100A69E651
:1058E000B4EE490AF1EE10FA7FF762AEA879013002
:1058F000C1B2C929A871FFF45BAE0120E87141F281
:105900002C2044F20001C2F20000C4F21C5181625A
:105910004EE600BF00003442000000005D896EBF0B
:105920005AF8F63FD5A9183B6F12833A000034436A
:10593000DB0F4940012008F0D1FCFBE780B540F6C1
:10594000D83046F20041C2F20000C4F20001032246
:10595000002380E80E0000F10C014FF4102C4FF4EE
:10596000001E81E8085083618383FBF763FD0028F4
:1059700008BF80BDBDE88040FBF75ABA80B540F64D
:10598000004046F60001C2F20000C4F2000103220A
:10599000002380E80E0000F10C014FF4102C4FF4AE
:1059A000001E81E8085083618383FBF743FD0028D4
:1059B00008BF80BDBDE88040FBF73ABA80B582B031
:1059C000002043F630010190C4F202010A6842F45B
:1059D00080020A600A6802F480020192019A009033
:1059E0000868002240F4001008600868052100F4EF
:1059F0000010009000980C20FCF7ECFD0C20FCF748
:105A0000D7FD392005210022FCF7E4FD3920FCF701
:105A1000CFFD3A2005210022FCF7DCFD3A20FCF7FF
:105A2000C7FD3B2005210022FCF7D4FD3B20FCF7FD
:105A3000BFFD442005210022FCF7CCFD4420FCF7EB
:105A4000B7FD452005210022FCF7C4FD4520FCF7E9
:105A5000AFFD462005210022FCF7BCFD462002B028
:105A6000BDE88040FCF7A4BDF0B5C7B041F240509E
:105A7000C0F6010090E81E50806940AD85E81E50D8
:105A8000469040A8002106F0D3FB40F29417C2F2E2
:105A90000007386041F22450C0F6010090E87E0013
:105AA00080690DF1E40C8CE87E003F9039A800215C
:105AB00006F0BEFB786041F25C50C0F6010090E851
:105AC0004E00D0E9045480690DF1C80C8CE84E00FA
:105AD000389032A80021CDE9365406F0A9FBB86011
